{
  "address": "0x1bd6b045ae822093c9ccfab4f786c419ccd165b7",
  "abi": [
    {
      "inputs": [
        {
          "internalType": "contract IERC20",
          "name": "_bcube",
          "type": "address"
        }
      ],
      "payable": false,
      "stateMutability": "nonpayable",
      "type": "constructor"
    },
    {
      "anonymous": false,
      "inputs": [
        {
          "indexed": true,
          "internalType": "address",
          "name": "staker",
          "type": "address"
        },
        {
          "indexed": false,
          "internalType": "uint256",
          "name": "bcubeAmount",
          "type": "uint256"
        }
      ],
      "name": "LogBcubeStaking",
      "type": "event"
    },
    {
      "anonymous": false,
      "inputs": [
        {
          "indexed": true,
          "internalType": "address",
          "name": "unstaker",
          "type": "address"
        },
        {
          "indexed": false,
          "internalType": "uint256",
          "name": "bcubeAmount",
          "type": "uint256"
        }
      ],
      "name": "LogBcubeUnstaking",
      "type": "event"
    },
    {
      "anonymous": false,
      "inputs": [
        {
          "indexed": true,
          "internalType": "address",
          "name": "sender",
          "type": "address"
        },
        {
          "indexed": false,
          "internalType": "uint256",
          "name": "weiReceived",
          "type": "uint256"
        }
      ],
      "name": "LogEtherReceived",
      "type": "event"
    },
    {
      "payable": true,
      "stateMutability": "payable",
      "type": "fallback"
    },
    {
      "constant": true,
      "inputs": [
        {
          "internalType": "address",
          "name": "",
          "type": "address"
        }
      ],
      "name": "bcubeStakeRegistry",
      "outputs": [
        {
          "internalType": "uint256",
          "name": "",
          "type": "uint256"
        }
      ],
      "payable": false,
      "stateMutability": "view",
      "type": "function"
    },
    {
      "constant": false,
      "inputs": [
        {
          "internalType": "uint256",
          "name": "_bcubeAmount",
          "type": "uint256"
        }
      ],
      "name": "stake",
      "outputs": [],
      "payable": false,
      "stateMutability": "nonpayable",
      "type": "function"
    },
    {
      "constant": false,
      "inputs": [
        {
          "internalType": "uint256",
          "name": "_bcubeAmount",
          "type": "uint256"
        }
      ],
      "name": "unstake",
      "outputs": [],
      "payable": false,
      "stateMutability": "nonpayable",
      "type": "function"
    }
  ],
  "transactionHash": "0xc339e07d6227bf4b766fde9eeae99c3c763d46290a650e1d87a1428481ce3862",
  "args": [
    "0xDaE0524F938ad5f83bE3e91cF55c935f56Ac556A"
  ],
  "numDeployments": 1,
  "solcInputHash": "0815f3a3be24b99a0687e04b4134a967",
  "bytecode": "0x608060405234801561001057600080fd5b506040516107d93803806107d98339818101604052602081101561003357600080fd5b5051600180546001600160a01b0319166001600160a01b03909216919091179055610776806100636000396000f3fe6080604052600436106100345760003560e01c80632e17de781461006c578063952b1a7c14610098578063a694fc3a146100dd575b60408051348152905133917f8cd787b71532f662d581f9ea765379c7759950cd7dedb590bc8f6f7b454bd5ed919081900360200190a2005b34801561007857600080fd5b506100966004803603602081101561008f57600080fd5b5035610107565b005b3480156100a457600080fd5b506100cb600480360360208110156100bb57600080fd5b50356001600160a01b0316610245565b60408051918252519081900360200190f35b3480156100e957600080fd5b506100966004803603602081101561010057600080fd5b5035610257565b6000811161015c576040805162461bcd60e51b815260206004820152601c60248201527f556e7374616b696e67206e6f6e2d706f73697469766520424355424500000000604482015290519081900360640190fd5b336000908152602081905260409020548111156101c0576040805162461bcd60e51b815260206004820152601960248201527f496e73756666696369656e74207374616b656420626375626500000000000000604482015290519081900360640190fd5b336000908152602081905260409020546101e0908263ffffffff61033216565b3360008181526020819052604090209190915560015461020c916001600160a01b03909116908361037b565b60408051828152905133917f06a740cd7b24f32f5e1cf4f7c8217bb8b64a4411f9db88b69dceadf5e5e2b618919081900360200190a250565b60006020819052908152604090205481565b600081116102ac576040805162461bcd60e51b815260206004820152601a60248201527f5374616b696e67206e6f6e2d706f736974697665204243554245000000000000604482015290519081900360640190fd5b336000908152602081905260409020546102cc908263ffffffff6103d216565b336000818152602081905260409020919091556001546102f9916001600160a01b0390911690308461042c565b60408051828152905133917fad156f00823d23c766c43002eba56c4705ac0d0e21f827319c58c0578f27d004919081900360200190a250565b600061037483836040518060400160405280601e81526020017f536166654d6174683a207375627472616374696f6e206f766572666c6f77000081525061048c565b9392505050565b604080516001600160a01b038416602482015260448082018490528251808303909101815260649091019091526020810180516001600160e01b031663a9059cbb60e01b1790526103cd908490610523565b505050565b600082820183811015610374576040805162461bcd60e51b815260206004820152601b60248201527f536166654d6174683a206164646974696f6e206f766572666c6f770000000000604482015290519081900360640190fd5b604080516001600160a01b0385811660248301528416604482015260648082018490528251808303909101815260849091019091526020810180516001600160e01b03166323b872dd60e01b179052610486908590610523565b50505050565b6000818484111561051b5760405162461bcd60e51b81526004018080602001828103825283818151815260200191508051906020019080838360005b838110156104e05781810151838201526020016104c8565b50505050905090810190601f16801561050d5780820380516001836020036101000a031916815260200191505b509250505060405180910390fd5b505050900390565b610535826001600160a01b03166106db565b610586576040805162461bcd60e51b815260206004820152601f60248201527f5361666545524332303a2063616c6c20746f206e6f6e2d636f6e747261637400604482015290519081900360640190fd5b60006060836001600160a01b0316836040518082805190602001908083835b602083106105c45780518252601f1990920191602091820191016105a5565b6001836020036101000a0380198251168184511680821785525050505050509050019150506000604051808303816000865af19150503d8060008114610626576040519150601f19603f3d011682016040523d82523d6000602084013e61062b565b606091505b509150915081610682576040805162461bcd60e51b815260206004820181905260248201527f5361666545524332303a206c6f772d6c6576656c2063616c6c206661696c6564604482015290519081900360640190fd5b8051156104865780806020019051602081101561069e57600080fd5b50516104865760405162461bcd60e51b815260040180806020018281038252602a815260200180610718602a913960400191505060405180910390fd5b6000813f7fc5d2460186f7233c927e7db2dcc703c0e500b653ca82273b7bfad8045d85a47081811480159061070f57508115155b94935050505056fe5361666545524332303a204552433230206f7065726174696f6e20646964206e6f742073756363656564a265627a7a723158208977af5559268e3e0815fbdc47c23eb436f782e4b55a3547d29c5a3b3e75a47164736f6c63430005110032",
  "devdoc": {
    "author": "Smit Rajput @ b-cube.ai*",
    "methods": {},
    "title": "Staking Contract"
  },
  "userdoc": {
    "methods": {},
    "notice": "Contract which allows users to stake their BCUBE tokens to gain access to free services on the website"
  },
  "storageLayout": {
    "storage": [
      {
        "astId": 3078,
        "contract": "contracts/Staking.sol:Staking",
        "label": "bcubeStakeRegistry",
        "offset": 0,
        "slot": "0",
        "type": "t_mapping(t_address,t_uint256)"
      },
      {
        "astId": 3080,
        "contract": "contracts/Staking.sol:Staking",
        "label": "bcube",
        "offset": 0,
        "slot": "1",
        "type": "t_contract(IERC20)1842"
      }
    ],
    "types": {
      "t_address": {
        "encoding": "inplace",
        "label": "address",
        "numberOfBytes": "20"
      },
      "t_contract(IERC20)1842": {
        "encoding": "inplace",
        "label": "contract IERC20",
        "numberOfBytes": "20"
      },
      "t_mapping(t_address,t_uint256)": {
        "encoding": "mapping",
        "key": "t_address",
        "label": "mapping(address => uint256)",
        "numberOfBytes": "32",
        "value": "t_uint256"
      },
      "t_uint256": {
        "encoding": "inplace",
        "label": "uint256",
        "numberOfBytes": "32"
      }
    }
  }
}