{
  "address": "0xbF0dde4aD5a1578351C473862eC947B3A44cC026",
  "abi": [
    {
      "inputs": [
        {
          "internalType": "address payable",
          "name": "wallet_",
          "type": "address"
        },
        {
          "internalType": "contract IERC20",
          "name": "token_",
          "type": "address"
        },
        {
          "internalType": "uint256",
          "name": "openingTime_",
          "type": "uint256"
        },
        {
          "internalType": "uint256",
          "name": "closingTime_",
          "type": "uint256"
        },
        {
          "internalType": "address",
          "name": "_chainlinkETHPriceFeed",
          "type": "address"
        },
        {
          "internalType": "address",
          "name": "_chainlinkUSDTPriceFeed",
          "type": "address"
        },
        {
          "internalType": "address",
          "name": "_usdtContract",
          "type": "address"
        },
        {
          "internalType": "uint256",
          "name": "_listingTime",
          "type": "uint256"
        }
      ],
      "payable": false,
      "stateMutability": "nonpayable",
      "type": "constructor"
    },
    {
      "anonymous": false,
      "inputs": [
        {
          "indexed": true,
          "internalType": "address",
          "name": "newAdvisor",
          "type": "address"
        },
        {
          "indexed": false,
          "internalType": "uint256",
          "name": "newNetAllowance",
          "type": "uint256"
        }
      ],
      "name": "LogAdvisorAddition",
      "type": "event"
    },
    {
      "anonymous": false,
      "inputs": [
        {
          "indexed": true,
          "internalType": "address",
          "name": "advisor",
          "type": "address"
        },
        {
          "indexed": false,
          "internalType": "uint256",
          "name": "prevNetAllowance",
          "type": "uint256"
        },
        {
          "indexed": false,
          "internalType": "uint256",
          "name": "newNetAllowance",
          "type": "uint256"
        }
      ],
      "name": "LogAdvisorAllowanceChange",
      "type": "event"
    },
    {
      "anonymous": false,
      "inputs": [
        {
          "indexed": true,
          "internalType": "address",
          "name": "removedAdvisor",
          "type": "address"
        }
      ],
      "name": "LogAdvisorRemoval",
      "type": "event"
    },
    {
      "anonymous": false,
      "inputs": [
        {
          "indexed": true,
          "internalType": "address",
          "name": "advisor",
          "type": "address"
        },
        {
          "indexed": false,
          "internalType": "uint256",
          "name": "bcubeAmountWithdrawn",
          "type": "uint256"
        }
      ],
      "name": "LogAdvisorShareWithdrawn",
      "type": "event"
    },
    {
      "anonymous": false,
      "inputs": [
        {
          "indexed": true,
          "internalType": "address",
          "name": "buyer",
          "type": "address"
        },
        {
          "indexed": false,
          "internalType": "uint256",
          "name": "incomingWei",
          "type": "uint256"
        },
        {
          "indexed": false,
          "internalType": "uint256",
          "name": "allocation",
          "type": "uint256"
        }
      ],
      "name": "LogBcubeBuyUsingEth",
      "type": "event"
    },
    {
      "anonymous": false,
      "inputs": [
        {
          "indexed": true,
          "internalType": "address",
          "name": "buyer",
          "type": "address"
        },
        {
          "indexed": false,
          "internalType": "uint256",
          "name": "incomingUsdtUnits",
          "type": "uint256"
        },
        {
          "indexed": false,
          "internalType": "uint256",
          "name": "allocation",
          "type": "uint256"
        }
      ],
      "name": "LogBcubeBuyUsingUsdt",
      "type": "event"
    },
    {
      "anonymous": false,
      "inputs": [
        {
          "indexed": false,
          "internalType": "uint256",
          "name": "bcubeAmountWithdrawn",
          "type": "uint256"
        }
      ],
      "name": "LogBountyShareWithdrawn",
      "type": "event"
    },
    {
      "anonymous": false,
      "inputs": [
        {
          "indexed": false,
          "internalType": "uint256",
          "name": "bcubeAmountWithdrawn",
          "type": "uint256"
        }
      ],
      "name": "LogCommunityShareWithdrawn",
      "type": "event"
    },
    {
      "anonymous": false,
      "inputs": [
        {
          "indexed": false,
          "internalType": "uint256",
          "name": "bcubeAmountWithdrawn",
          "type": "uint256"
        }
      ],
      "name": "LogDevFundShareWithdrawn",
      "type": "event"
    },
    {
      "anonymous": false,
      "inputs": [
        {
          "indexed": true,
          "internalType": "address",
          "name": "newChainlinkETHPriceFeed",
          "type": "address"
        }
      ],
      "name": "LogETHPriceFeedChange",
      "type": "event"
    },
    {
      "anonymous": false,
      "inputs": [
        {
          "indexed": true,
          "internalType": "address",
          "name": "sender",
          "type": "address"
        },
        {
          "indexed": false,
          "internalType": "uint256",
          "name": "value",
          "type": "uint256"
        }
      ],
      "name": "LogEtherReceived",
      "type": "event"
    },
    {
      "anonymous": false,
      "inputs": [
        {
          "indexed": false,
          "internalType": "uint256",
          "name": "prevListingTime",
          "type": "uint256"
        },
        {
          "indexed": false,
          "internalType": "uint256",
          "name": "newListingTime",
          "type": "uint256"
        }
      ],
      "name": "LogListingTimeChange",
      "type": "event"
    },
    {
      "anonymous": false,
      "inputs": [
        {
          "indexed": true,
          "internalType": "address",
          "name": "participant",
          "type": "address"
        },
        {
          "indexed": false,
          "internalType": "uint256",
          "name": "bcubeAmountWithdrawn",
          "type": "uint256"
        }
      ],
      "name": "LogPrivateSaleShareWithdrawn",
      "type": "event"
    },
    {
      "anonymous": false,
      "inputs": [
        {
          "indexed": false,
          "internalType": "uint256",
          "name": "previousClosingTime",
          "type": "uint256"
        },
        {
          "indexed": false,
          "internalType": "uint256",
          "name": "newClosingTime",
          "type": "uint256"
        }
      ],
      "name": "LogPrivateSaleTimeExtension",
      "type": "event"
    },
    {
      "anonymous": false,
      "inputs": [
        {
          "indexed": false,
          "internalType": "uint256",
          "name": "bcubeAmountWithdrawn",
          "type": "uint256"
        }
      ],
      "name": "LogPublicSaleShareWithdrawn",
      "type": "event"
    },
    {
      "anonymous": false,
      "inputs": [
        {
          "indexed": false,
          "internalType": "uint256",
          "name": "bcubeAmountWithdrawn",
          "type": "uint256"
        }
      ],
      "name": "LogReservesShareWithdrawn",
      "type": "event"
    },
    {
      "anonymous": false,
      "inputs": [
        {
          "indexed": false,
          "internalType": "uint256",
          "name": "bcubeAmountWithdrawn",
          "type": "uint256"
        }
      ],
      "name": "LogTeamShareWithdrawn",
      "type": "event"
    },
    {
      "anonymous": false,
      "inputs": [
        {
          "indexed": true,
          "internalType": "address",
          "name": "newUsdtContract",
          "type": "address"
        }
      ],
      "name": "LogUSDTInstanceChange",
      "type": "event"
    },
    {
      "anonymous": false,
      "inputs": [
        {
          "indexed": true,
          "internalType": "address",
          "name": "newChainlinkUSDTPriceFeed",
          "type": "address"
        }
      ],
      "name": "LogUSDTPriceFeedChange",
      "type": "event"
    },
    {
      "anonymous": false,
      "inputs": [
        {
          "indexed": false,
          "internalType": "uint256",
          "name": "prevClosingTime",
          "type": "uint256"
        },
        {
          "indexed": false,
          "internalType": "uint256",
          "name": "newClosingTime",
          "type": "uint256"
        }
      ],
      "name": "TimedCrowdsaleExtended",
      "type": "event"
    },
    {
      "anonymous": false,
      "inputs": [
        {
          "indexed": true,
          "internalType": "address",
          "name": "purchaser",
          "type": "address"
        },
        {
          "indexed": true,
          "internalType": "address",
          "name": "beneficiary",
          "type": "address"
        },
        {
          "indexed": false,
          "internalType": "uint256",
          "name": "value",
          "type": "uint256"
        },
        {
          "indexed": false,
          "internalType": "uint256",
          "name": "amount",
          "type": "uint256"
        }
      ],
      "name": "TokensPurchased",
      "type": "event"
    },
    {
      "anonymous": false,
      "inputs": [
        {
          "indexed": true,
          "internalType": "address",
          "name": "account",
          "type": "address"
        }
      ],
      "name": "WhitelistAdminAdded",
      "type": "event"
    },
    {
      "anonymous": false,
      "inputs": [
        {
          "indexed": true,
          "internalType": "address",
          "name": "account",
          "type": "address"
        }
      ],
      "name": "WhitelistAdminRemoved",
      "type": "event"
    },
    {
      "anonymous": false,
      "inputs": [
        {
          "indexed": true,
          "internalType": "address",
          "name": "account",
          "type": "address"
        }
      ],
      "name": "WhitelistedAdded",
      "type": "event"
    },
    {
      "anonymous": false,
      "inputs": [
        {
          "indexed": true,
          "internalType": "address",
          "name": "account",
          "type": "address"
        }
      ],
      "name": "WhitelistedRemoved",
      "type": "event"
    },
    {
      "payable": true,
      "stateMutability": "payable",
      "type": "fallback"
    },
    {
      "constant": true,
      "inputs": [],
      "name": "HARD_CAP",
      "outputs": [
        {
          "internalType": "uint256",
          "name": "",
          "type": "uint256"
        }
      ],
      "payable": false,
      "stateMutability": "view",
      "type": "function"
    },
    {
      "constant": false,
      "inputs": [
        {
          "internalType": "address",
          "name": "_newAdvisor",
          "type": "address"
        },
        {
          "internalType": "uint256",
          "name": "_netAllowance",
          "type": "uint256"
        }
      ],
      "name": "addAdvisor",
      "outputs": [],
      "payable": false,
      "stateMutability": "nonpayable",
      "type": "function"
    },
    {
      "constant": false,
      "inputs": [
        {
          "internalType": "address",
          "name": "account",
          "type": "address"
        }
      ],
      "name": "addWhitelistAdmin",
      "outputs": [],
      "payable": false,
      "stateMutability": "nonpayable",
      "type": "function"
    },
    {
      "constant": false,
      "inputs": [
        {
          "internalType": "address",
          "name": "account",
          "type": "address"
        }
      ],
      "name": "addWhitelisted",
      "outputs": [],
      "payable": false,
      "stateMutability": "nonpayable",
      "type": "function"
    },
    {
      "constant": false,
      "inputs": [
        {
          "internalType": "uint256",
          "name": "bcubeAmount",
          "type": "uint256"
        }
      ],
      "name": "advisorShareWithdraw",
      "outputs": [],
      "payable": false,
      "stateMutability": "nonpayable",
      "type": "function"
    },
    {
      "constant": true,
      "inputs": [
        {
          "internalType": "address",
          "name": "",
          "type": "address"
        }
      ],
      "name": "advisors",
      "outputs": [
        {
          "internalType": "uint256",
          "name": "increaseInAllowance",
          "type": "uint256"
        },
        {
          "internalType": "uint256",
          "name": "currentAllowance",
          "type": "uint256"
        },
        {
          "internalType": "uint256",
          "name": "shareWithdrawn",
          "type": "uint256"
        }
      ],
      "payable": false,
      "stateMutability": "view",
      "type": "function"
    },
    {
      "constant": true,
      "inputs": [
        {
          "internalType": "address",
          "name": "",
          "type": "address"
        }
      ],
      "name": "bcubeAllocationRegistry",
      "outputs": [
        {
          "internalType": "uint256",
          "name": "dollarUnitsPayed",
          "type": "uint256"
        },
        {
          "internalType": "uint256",
          "name": "allocatedBcube",
          "type": "uint256"
        },
        {
          "internalType": "uint256",
          "name": "currentAllowance",
          "type": "uint256"
        },
        {
          "internalType": "uint256",
          "name": "shareWithdrawn",
          "type": "uint256"
        }
      ],
      "payable": false,
      "stateMutability": "view",
      "type": "function"
    },
    {
      "constant": false,
      "inputs": [
        {
          "internalType": "uint256",
          "name": "bcubeAmount",
          "type": "uint256"
        }
      ],
      "name": "bountyShareWithdraw",
      "outputs": [],
      "payable": false,
      "stateMutability": "nonpayable",
      "type": "function"
    },
    {
      "constant": true,
      "inputs": [],
      "name": "bountyWithdrawn",
      "outputs": [
        {
          "internalType": "uint256",
          "name": "",
          "type": "uint256"
        }
      ],
      "payable": false,
      "stateMutability": "view",
      "type": "function"
    },
    {
      "constant": false,
      "inputs": [],
      "name": "buyBcubeUsingETH",
      "outputs": [],
      "payable": true,
      "stateMutability": "payable",
      "type": "function"
    },
    {
      "constant": false,
      "inputs": [
        {
          "internalType": "uint256",
          "name": "incomingUsdt",
          "type": "uint256"
        }
      ],
      "name": "buyBcubeUsingUSDT",
      "outputs": [],
      "payable": false,
      "stateMutability": "nonpayable",
      "type": "function"
    },
    {
      "constant": true,
      "inputs": [],
      "name": "buyTokens",
      "outputs": [
        {
          "internalType": "uint256",
          "name": "",
          "type": "uint256"
        }
      ],
      "payable": false,
      "stateMutability": "pure",
      "type": "function"
    },
    {
      "constant": false,
      "inputs": [
        {
          "internalType": "address",
          "name": "beneficiary",
          "type": "address"
        }
      ],
      "name": "buyTokens",
      "outputs": [],
      "payable": true,
      "stateMutability": "payable",
      "type": "function"
    },
    {
      "constant": true,
      "inputs": [],
      "name": "closingTime",
      "outputs": [
        {
          "internalType": "uint256",
          "name": "",
          "type": "uint256"
        }
      ],
      "payable": false,
      "stateMutability": "view",
      "type": "function"
    },
    {
      "constant": false,
      "inputs": [
        {
          "internalType": "uint256",
          "name": "bcubeAmount",
          "type": "uint256"
        }
      ],
      "name": "communityShareWithdraw",
      "outputs": [],
      "payable": false,
      "stateMutability": "nonpayable",
      "type": "function"
    },
    {
      "constant": true,
      "inputs": [],
      "name": "communityShareWithdrawn",
      "outputs": [
        {
          "internalType": "uint256",
          "name": "",
          "type": "uint256"
        }
      ],
      "payable": false,
      "stateMutability": "view",
      "type": "function"
    },
    {
      "constant": true,
      "inputs": [],
      "name": "devFundAllowance",
      "outputs": [
        {
          "internalType": "uint256",
          "name": "",
          "type": "uint256"
        }
      ],
      "payable": false,
      "stateMutability": "view",
      "type": "function"
    },
    {
      "constant": false,
      "inputs": [
        {
          "internalType": "uint256",
          "name": "bcubeAmount",
          "type": "uint256"
        }
      ],
      "name": "devFundShareWithdraw",
      "outputs": [],
      "payable": false,
      "stateMutability": "nonpayable",
      "type": "function"
    },
    {
      "constant": true,
      "inputs": [],
      "name": "devFundShareWithdrawn",
      "outputs": [
        {
          "internalType": "uint256",
          "name": "",
          "type": "uint256"
        }
      ],
      "payable": false,
      "stateMutability": "view",
      "type": "function"
    },
    {
      "constant": false,
      "inputs": [
        {
          "internalType": "uint256",
          "name": "_newClosingTime",
          "type": "uint256"
        }
      ],
      "name": "extendClosingTime",
      "outputs": [],
      "payable": false,
      "stateMutability": "nonpayable",
      "type": "function"
    },
    {
      "constant": true,
      "inputs": [],
      "name": "fetchETHPrice",
      "outputs": [
        {
          "internalType": "int256",
          "name": "",
          "type": "int256"
        }
      ],
      "payable": false,
      "stateMutability": "view",
      "type": "function"
    },
    {
      "constant": true,
      "inputs": [],
      "name": "fetchUSDTPrice",
      "outputs": [
        {
          "internalType": "int256",
          "name": "",
          "type": "int256"
        }
      ],
      "payable": false,
      "stateMutability": "view",
      "type": "function"
    },
    {
      "constant": true,
      "inputs": [],
      "name": "hasClosed",
      "outputs": [
        {
          "internalType": "bool",
          "name": "",
          "type": "bool"
        }
      ],
      "payable": false,
      "stateMutability": "view",
      "type": "function"
    },
    {
      "constant": true,
      "inputs": [],
      "name": "isOpen",
      "outputs": [
        {
          "internalType": "bool",
          "name": "",
          "type": "bool"
        }
      ],
      "payable": false,
      "stateMutability": "view",
      "type": "function"
    },
    {
      "constant": true,
      "inputs": [
        {
          "internalType": "address",
          "name": "account",
          "type": "address"
        }
      ],
      "name": "isWhitelistAdmin",
      "outputs": [
        {
          "internalType": "bool",
          "name": "",
          "type": "bool"
        }
      ],
      "payable": false,
      "stateMutability": "view",
      "type": "function"
    },
    {
      "constant": true,
      "inputs": [
        {
          "internalType": "address",
          "name": "account",
          "type": "address"
        }
      ],
      "name": "isWhitelisted",
      "outputs": [
        {
          "internalType": "bool",
          "name": "",
          "type": "bool"
        }
      ],
      "payable": false,
      "stateMutability": "view",
      "type": "function"
    },
    {
      "constant": true,
      "inputs": [],
      "name": "listingTime",
      "outputs": [
        {
          "internalType": "uint256",
          "name": "",
          "type": "uint256"
        }
      ],
      "payable": false,
      "stateMutability": "view",
      "type": "function"
    },
    {
      "constant": true,
      "inputs": [],
      "name": "netAllocatedBcube",
      "outputs": [
        {
          "internalType": "uint256",
          "name": "",
          "type": "uint256"
        }
      ],
      "payable": false,
      "stateMutability": "view",
      "type": "function"
    },
    {
      "constant": true,
      "inputs": [],
      "name": "openingTime",
      "outputs": [
        {
          "internalType": "uint256",
          "name": "",
          "type": "uint256"
        }
      ],
      "payable": false,
      "stateMutability": "view",
      "type": "function"
    },
    {
      "constant": false,
      "inputs": [
        {
          "internalType": "uint256",
          "name": "bcubeAmount",
          "type": "uint256"
        }
      ],
      "name": "privateSaleShareWithdraw",
      "outputs": [],
      "payable": false,
      "stateMutability": "nonpayable",
      "type": "function"
    },
    {
      "constant": false,
      "inputs": [
        {
          "internalType": "uint256",
          "name": "bcubeAmount",
          "type": "uint256"
        }
      ],
      "name": "publicSaleShareWithdraw",
      "outputs": [],
      "payable": false,
      "stateMutability": "nonpayable",
      "type": "function"
    },
    {
      "constant": true,
      "inputs": [],
      "name": "publicSaleShareWithdrawn",
      "outputs": [
        {
          "internalType": "uint256",
          "name": "",
          "type": "uint256"
        }
      ],
      "payable": false,
      "stateMutability": "view",
      "type": "function"
    },
    {
      "constant": true,
      "inputs": [],
      "name": "rate",
      "outputs": [
        {
          "internalType": "uint256",
          "name": "",
          "type": "uint256"
        }
      ],
      "payable": false,
      "stateMutability": "view",
      "type": "function"
    },
    {
      "constant": false,
      "inputs": [
        {
          "internalType": "address",
          "name": "_advisor",
          "type": "address"
        }
      ],
      "name": "removeAdvisor",
      "outputs": [],
      "payable": false,
      "stateMutability": "nonpayable",
      "type": "function"
    },
    {
      "constant": false,
      "inputs": [
        {
          "internalType": "address",
          "name": "account",
          "type": "address"
        }
      ],
      "name": "removeWhitelisted",
      "outputs": [],
      "payable": false,
      "stateMutability": "nonpayable",
      "type": "function"
    },
    {
      "constant": false,
      "inputs": [],
      "name": "renounceWhitelistAdmin",
      "outputs": [],
      "payable": false,
      "stateMutability": "nonpayable",
      "type": "function"
    },
    {
      "constant": false,
      "inputs": [],
      "name": "renounceWhitelisted",
      "outputs": [],
      "payable": false,
      "stateMutability": "nonpayable",
      "type": "function"
    },
    {
      "constant": false,
      "inputs": [
        {
          "internalType": "uint256",
          "name": "bcubeAmount",
          "type": "uint256"
        }
      ],
      "name": "reservesShareWithdraw",
      "outputs": [],
      "payable": false,
      "stateMutability": "nonpayable",
      "type": "function"
    },
    {
      "constant": true,
      "inputs": [],
      "name": "reservesWithdrawn",
      "outputs": [
        {
          "internalType": "uint256",
          "name": "",
          "type": "uint256"
        }
      ],
      "payable": false,
      "stateMutability": "view",
      "type": "function"
    },
    {
      "constant": false,
      "inputs": [
        {
          "internalType": "address",
          "name": "_advisor",
          "type": "address"
        },
        {
          "internalType": "uint256",
          "name": "_newNetAllowance",
          "type": "uint256"
        }
      ],
      "name": "setAdvisorAllowance",
      "outputs": [],
      "payable": false,
      "stateMutability": "nonpayable",
      "type": "function"
    },
    {
      "constant": false,
      "inputs": [
        {
          "internalType": "address",
          "name": "_newChainlinkETHPriceFeed",
          "type": "address"
        }
      ],
      "name": "setETHPriceFeed",
      "outputs": [],
      "payable": false,
      "stateMutability": "nonpayable",
      "type": "function"
    },
    {
      "constant": false,
      "inputs": [
        {
          "internalType": "uint256",
          "name": "_startTime",
          "type": "uint256"
        }
      ],
      "name": "setListingTime",
      "outputs": [],
      "payable": false,
      "stateMutability": "nonpayable",
      "type": "function"
    },
    {
      "constant": false,
      "inputs": [
        {
          "internalType": "address",
          "name": "_newUsdtContract",
          "type": "address"
        }
      ],
      "name": "setUSDTInstance",
      "outputs": [],
      "payable": false,
      "stateMutability": "nonpayable",
      "type": "function"
    },
    {
      "constant": false,
      "inputs": [
        {
          "internalType": "address",
          "name": "_newChainlinkUSDTPriceFeed",
          "type": "address"
        }
      ],
      "name": "setUSDTPriceFeed",
      "outputs": [],
      "payable": false,
      "stateMutability": "nonpayable",
      "type": "function"
    },
    {
      "constant": true,
      "inputs": [],
      "name": "teamAllowance",
      "outputs": [
        {
          "internalType": "uint256",
          "name": "",
          "type": "uint256"
        }
      ],
      "payable": false,
      "stateMutability": "view",
      "type": "function"
    },
    {
      "constant": false,
      "inputs": [
        {
          "internalType": "uint256",
          "name": "bcubeAmount",
          "type": "uint256"
        }
      ],
      "name": "teamShareWithdraw",
      "outputs": [],
      "payable": false,
      "stateMutability": "nonpayable",
      "type": "function"
    },
    {
      "constant": true,
      "inputs": [],
      "name": "teamShareWithdrawn",
      "outputs": [
        {
          "internalType": "uint256",
          "name": "",
          "type": "uint256"
        }
      ],
      "payable": false,
      "stateMutability": "view",
      "type": "function"
    },
    {
      "constant": true,
      "inputs": [],
      "name": "token",
      "outputs": [
        {
          "internalType": "contract IERC20",
          "name": "",
          "type": "address"
        }
      ],
      "payable": false,
      "stateMutability": "view",
      "type": "function"
    },
    {
      "constant": true,
      "inputs": [],
      "name": "usdt",
      "outputs": [
        {
          "internalType": "contract IERC20",
          "name": "",
          "type": "address"
        }
      ],
      "payable": false,
      "stateMutability": "view",
      "type": "function"
    },
    {
      "constant": true,
      "inputs": [],
      "name": "wallet",
      "outputs": [
        {
          "internalType": "address payable",
          "name": "",
          "type": "address"
        }
      ],
      "payable": false,
      "stateMutability": "view",
      "type": "function"
    },
    {
      "constant": true,
      "inputs": [],
      "name": "weiRaised",
      "outputs": [
        {
          "internalType": "uint256",
          "name": "",
          "type": "uint256"
        }
      ],
      "payable": false,
      "stateMutability": "view",
      "type": "function"
    }
  ],
  "transactionHash": "0xb9172145ff50a688ddc197f09403ecd3694d1ad549ec09b0c035b7f73f762878",
  "args": [
    "0xB8ca88bFE9520e52C034D5901177a9F9504495A4",
    "0xDaE0524F938ad5f83bE3e91cF55c935f56Ac556A",
    1666201140,
    1673977140,
    "0xD4a33860578De61DBAbDc8BFdb98FD742fA7028e",
    "0xAb5c49580294Aff77670F839ea425f5b78ab3Ae7",
    "0xb5B640E6414b6DeF4FC9B3C1EeF373925effeCcF",
    1680889140
  ],
  "numDeployments": 2,
  "solcInputHash": "6e0f95abc7d2787dd6bfa0a3198b1010",
  "bytecode": "0x60806040523480156200001157600080fd5b5060405162003f9c38038062003f9c83398181016040526101008110156200003857600080fd5b508051602082015160408301516060840151608085015160a086015160c087015160e090970151959694959394929391929091878787878787878484600189896200009e6200008f6001600160e01b03620002ab16565b6001600160e01b03620002af16565b6002805460ff1916600117905582620000fe576040805162461bcd60e51b815260206004820152601460248201527f43726f776473616c653a20726174652069732030000000000000000000000000604482015290519081900360640190fd5b6001600160a01b038216620001455760405162461bcd60e51b815260040180806020018281038252602581526020018062003f776025913960400191505060405180910390fd5b6001600160a01b0381166200018c5760405162461bcd60e51b815260040180806020018281038252602481526020018062003f316024913960400191505060405180910390fd5b600492909255600380546001600160a01b039283166001600160a01b0319909116179055600280549190921661010002610100600160a81b0319909116179055428210156200020d5760405162461bcd60e51b815260040180806020018281038252603381526020018062003ec76033913960400191505060405180910390fd5b8181116200024d5760405162461bcd60e51b815260040180806020018281038252603781526020018062003efa6037913960400191505060405180910390fd5b600691909155600755600a80546001600160a01b039485166001600160a01b031991821617909155600b805493851693821693909317909255600c805491909316911617905550505060169190915550620003f79650505050505050565b3390565b620002ca8160006200030160201b6200322d1790919060201c565b6040516001600160a01b038216907f22380c05984257a1cb900161c713dd71d39e74820f1aea43bd3f1bdd2096129990600090a250565b6200031682826001600160e01b036200038e16565b1562000369576040805162461bcd60e51b815260206004820152601f60248201527f526f6c65733a206163636f756e7420616c72656164792068617320726f6c6500604482015290519081900360640190fd5b6001600160a01b0316600090815260209190915260409020805460ff19166001179055565b60006001600160a01b038216620003d75760405162461bcd60e51b815260040180806020018281038252602281526020018062003f556022913960400191505060405180910390fd5b506001600160a01b03166000908152602091909152604090205460ff1690565b613ac080620004076000396000f3fe6080604052600436106102e45760003560e01c80636ed7702411610190578063b822b96f116100dc578063ec8ac4d811610095578063f9169a7a1161006f578063f9169a7a14610a0e578063f983727b14610a23578063fa04c8ca14610a38578063fc0c546a14610a4d576102e4565b8063ec8ac4d814610956578063f54575d61461097c578063f7d8c2c2146109b5576102e4565b8063b822b96f1461086c578063bb5f747b14610896578063c015889b146108c9578063d0febe4c14610902578063d6cd947314610917578063e131d7351461092c576102e4565b80639e40ee5d11610149578063af43363811610123578063af43363814610803578063b02dbd0714610818578063b3f0d3331461082d578063b7a8807c14610857576102e4565b80639e40ee5d1461079a578063a5075a0d146107af578063a8b9731a146107d9576102e4565b80636ed77024146106ba5780637362d9c8146106ed5780637af32311146107205780637b8751141461073557806390d137f61461076857806394e1426514610792576102e4565b80633e2640d61161024f5780634c5a628c116102085780635c9599de116101e25780635c9599de1461063357806369f61039146106485780636b226b6c1461067b5780636ea2d99814610690576102e4565b80634c5a628c146105df578063521eb273146105f45780635c88957514610609576102e4565b80633e2640d6146105375780634042b66f1461056157806340a2795e1461057657806341b200471461058b57806347535d7b146105b55780634b6753bc146105ca576102e4565b80632f48ab7d116102a15780632f48ab7d1461046a57806333b147421461049b578063352ba579146104b05780633a03171c146104c55780633af32abf146104da5780633c3bebc51461050d576102e4565b806303ca0f6c1461032e5780630eeccb841461037f57806310154bad146103b45780631515bc2b146103e7578063291d9549146104105780632c4e722e14610443575b6102ec610a62565b6001600160a01b03167f8cd787b71532f662d581f9ea765379c7759950cd7dedb590bc8f6f7b454bd5ed346040518082815260200191505060405180910390a2005b34801561033a57600080fd5b506103616004803603602081101561035157600080fd5b50356001600160a01b0316610a66565b60408051938452602084019290925282820152519081900360600190f35b34801561038b57600080fd5b506103b2600480360360208110156103a257600080fd5b50356001600160a01b0316610a87565b005b3480156103c057600080fd5b506103b2600480360360208110156103d757600080fd5b50356001600160a01b0316610b7f565b3480156103f357600080fd5b506103fc610bd1565b604080519115158252519081900360200190f35b34801561041c57600080fd5b506103b26004803603602081101561043357600080fd5b50356001600160a01b0316610bd9565b34801561044f57600080fd5b50610458610c28565b60408051918252519081900360200190f35b34801561047657600080fd5b5061047f610c77565b604080516001600160a01b039092168252519081900360200190f35b3480156104a757600080fd5b50610458610c86565b3480156104bc57600080fd5b50610458610c8c565b3480156104d157600080fd5b50610458610c92565b3480156104e657600080fd5b506103fc600480360360208110156104fd57600080fd5b50356001600160a01b0316610ca1565b34801561051957600080fd5b506103b26004803603602081101561053057600080fd5b5035610cbc565b34801561054357600080fd5b506103b26004803603602081101561055a57600080fd5b5035610daf565b34801561056d57600080fd5b50610458610e41565b34801561058257600080fd5b50610458610e47565b34801561059757600080fd5b506103b2600480360360208110156105ae57600080fd5b5035610e4d565b3480156105c157600080fd5b506103fc610f79565b3480156105d657600080fd5b50610458610f94565b3480156105eb57600080fd5b506103b2610f9a565b34801561060057600080fd5b5061047f610fac565b34801561061557600080fd5b506103b26004803603602081101561062c57600080fd5b5035610fbb565b34801561063f57600080fd5b50610458611246565b34801561065457600080fd5b506103b26004803603602081101561066b57600080fd5b50356001600160a01b031661124c565b34801561068757600080fd5b506104586112dc565b34801561069c57600080fd5b506103b2600480360360208110156106b357600080fd5b50356112e2565b3480156106c657600080fd5b506103b2600480360360208110156106dd57600080fd5b50356001600160a01b03166115d8565b3480156106f957600080fd5b506103b26004803603602081101561071057600080fd5b50356001600160a01b0316611668565b34801561072c57600080fd5b506104586116b7565b34801561074157600080fd5b506103b26004803603602081101561075857600080fd5b50356001600160a01b03166116bd565b34801561077457600080fd5b506103b26004803603602081101561078b57600080fd5b503561174d565b6103b2611831565b3480156107a657600080fd5b506104586119da565b3480156107bb57600080fd5b506103b2600480360360208110156107d257600080fd5b5035611a60565b3480156107e557600080fd5b506103b2600480360360208110156107fc57600080fd5b5035611c19565b34801561080f57600080fd5b50610458611e06565b34801561082457600080fd5b50610458611e0c565b34801561083957600080fd5b506103b26004803603602081101561085057600080fd5b5035611e12565b34801561086357600080fd5b50610458611efa565b34801561087857600080fd5b506103b26004803603602081101561088f57600080fd5b5035611f00565b3480156108a257600080fd5b506103fc600480360360208110156108b957600080fd5b50356001600160a01b03166121eb565b3480156108d557600080fd5b506103b2600480360360408110156108ec57600080fd5b506001600160a01b0381351690602001356121fd565b34801561090e57600080fd5b5061045861233b565b34801561092357600080fd5b506103b2612374565b34801561093857600080fd5b506103b26004803603602081101561094f57600080fd5b5035612384565b6103b26004803603602081101561096c57600080fd5b50356001600160a01b0316612451565b34801561098857600080fd5b506103b26004803603604081101561099f57600080fd5b506001600160a01b038135169060200135612573565b3480156109c157600080fd5b506109e8600480360360208110156109d857600080fd5b50356001600160a01b031661267b565b604080519485526020850193909352838301919091526060830152519081900360800190f35b348015610a1a57600080fd5b506104586126a2565b348015610a2f57600080fd5b506104586126a8565b348015610a4457600080fd5b506104586126ae565b348015610a5957600080fd5b5061047f61276b565b3390565b600d6020526000908152604090208054600182015460029092015490919083565b610a97610a92610a62565b6121eb565b610ad25760405162461bcd60e51b81526004018080602001828103825260408152602001806139526040913960400191505060405180910390fd5b6001600160a01b0381166000908152600d6020526040902054610b2e576040805162461bcd60e51b815260206004820152600f60248201526e24b73b30b634b21030b23b34b9b7b960891b604482015290519081900360640190fd5b6001600160a01b0381166000818152600d602052604080822082815560018101839055600201829055517f6298d302ce5f4bab7a4009d80433bf2548a274df2564257476d97c940e6897b29190a250565b610b8a610a92610a62565b610bc55760405162461bcd60e51b81526004018080602001828103825260408152602001806139526040913960400191505060405180910390fd5b610bce8161277f565b50565b600754421190565b610be4610a92610a62565b610c1f5760405162461bcd60e51b81526004018080602001828103825260408152602001806139526040913960400191505060405180910390fd5b610bce816127c7565b6040805162461bcd60e51b815260206004820152601f60248201527f42437562655072697661746553616c653a207261746528292063616c6c6564006044820152905160009181900360640190fd5b600c546001600160a01b031681565b60165481565b60145481565b6a084595161401484a00000081565b6000610cb460018363ffffffff61280f16565b90505b919050565b610cc4610fac565b6001600160a01b0316610cd5610a62565b6001600160a01b031614610d25576040805162461bcd60e51b815260206004820152601260248201527113db9b1e481d19585b4818d85b8818d85b1b60721b604482015290519081900360640190fd5b610d79816015546009546a14adf4b7320334b9000000036040518060400160405280601781526020017f4f7574206f66207075626c696353616c65207368617265000000000000000000815250600361287a565b6040805182815290517fb334e86d86ec6fee4740b72723594b042696df8b2078c1510e0ff889071160ed9181900360200190a150565b610dba610a92610a62565b610df55760405162461bcd60e51b81526004018080602001828103825260408152602001806139526040913960400191505060405180910390fd5b610dfe8161297c565b7f3fb76bf02dd0aeceab93b43bc4c039089f0b7578dcbfb81d2a904ece318a87d0610e27610f94565b60408051918252602082018490528051918290030190a150565b60055490565b600e5481565b610e55610fac565b6001600160a01b0316610e66610a62565b6001600160a01b031614610eb6576040805162461bcd60e51b815260206004820152601260248201527113db9b1e481d19585b4818d85b8818d85b1b60721b604482015290519081900360640190fd5b601654421015610efb576040805162461bcd60e51b815260206004820152601b6024820152600080516020613a47833981519152604482015290519081900360640190fd5b610f43816012546a05ca4ec2a79a7f67000000604051806040016040528060158152602001744f7574206f6620726573657276657320736861726560581b815250600061287a565b6040805182815290517f16c8b3ea61a43f4b49b7697830aab88eb77ceb2c2dc1ae5f59cb2be86b0b85ba9181900360200190a150565b60006006544210158015610f8f57506007544211155b905090565b60075490565b610faa610fa5610a62565b612a58565b565b6003546001600160a01b031690565b610fc3610fac565b6001600160a01b0316610fd4610a62565b6001600160a01b031614611024576040805162461bcd60e51b815260206004820152601260248201527113db9b1e481d19585b4818d85b8818d85b1b60721b604482015290519081900360640190fd5b601654421015611069576040805162461bcd60e51b815260206004820152601b6024820152600080516020613a47833981519152604482015290519081900360640190fd5b600060165463077f880001421061108c57506a0422ca8b0a00a42500000061116d565b60165463068f97000142106110ad57506a039e7139a8c08fa060000061116d565b60165463059fa6000142106110ce57506a031a17e847807b1bc0000061116d565b6016546304afb5000142106110ef57506a0295be96e640669720000061116d565b6016546303bfc40001421061111057506a021165458500521280000061116d565b6016546302cfd30001421061113157506a018d0bf423c03d8de0000061116d565b6016546301dfe20001421061115257506a0108b2a2c280290940000061116d565b60165462eff10001421061116d57506984595161401484a000005b600f54811461117c57600f8190555b600e54600090611192908463ffffffff612aa016565b9050600f548111156111df576040805162461bcd60e51b81526020600482015260116024820152704f7574206f66207465616d20736861726560781b604482015290519081900360640190fd5b600e81905561120e6111ef610fac565b846111f861276b565b6001600160a01b0316919063ffffffff612b0116565b6040805184815290517ff26632d6507893828e9976809970a5a6835d929f140bb32f2369012ef809985d9181900360200190a1505050565b60115481565b611257610a92610a62565b6112925760405162461bcd60e51b81526004018080602001828103825260408152602001806139526040913960400191505060405180910390fd5b600c80546001600160a01b0319166001600160a01b0383169081179091556040517fac2db933594c5083197a72b940a989b91a7001b86f20a7ad67095c54239bae0b90600090a250565b60135481565b601654421015611327576040805162461bcd60e51b815260206004820152601b6024820152600080516020613a47833981519152604482015290519081900360640190fd5b600060086000611335610a62565b6001600160a01b03166001600160a01b0316815260200190815260200160002060010154116113955760405162461bcd60e51b815260040180806020018281038252602c815260200180613862602c913960400191505060405180910390fd5b6000806113d26004600860006113a9610a62565b6001600160a01b031681526020810191909152604001600020600101549063ffffffff612b5816565b9050601654629e34000142106113ed57806004029150611431565b6016546276a70001421061140657806003029150611431565b601654624f1a0001421061141f57806002029150611431565b60165462278d00014210611431578091505b6008600061143d610a62565b6001600160a01b03166001600160a01b03168152602001908152602001600020600201548214611492578160086000611474610a62565b6001600160a01b031681526020810191909152604001600020600201555b60006114cd84600860006114a4610a62565b6001600160a01b031681526020810191909152604001600020600301549063ffffffff612aa016565b9050600860006114db610a62565b6001600160a01b03166001600160a01b031681526020019081526020016000206002015481111561154c576040805162461bcd60e51b8152602060048201526016602482015275496e73756666696369656e7420616c6c6f77616e636560501b604482015290519081900360640190fd5b8060086000611559610a62565b6001600160a01b0316815260208101919091526040016000206003015561158a611581610a62565b856111f861276b565b611592610a62565b6001600160a01b03167f845fb39b5b60bc9f899236606f87e43e7d4ec84f6fe7255e158cb5cae8d62147856040518082815260200191505060405180910390a250505050565b6115e3610a92610a62565b61161e5760405162461bcd60e51b81526004018080602001828103825260408152602001806139526040913960400191505060405180910390fd5b600b80546001600160a01b0319166001600160a01b0383169081179091556040517fd8fbae2ea5968d1f413f3c548aac18b3ebab988ff71c886d37822db6593d66b990600090a250565b611673610a92610a62565b6116ae5760405162461bcd60e51b81526004018080602001828103825260408152602001806139526040913960400191505060405180910390fd5b610bce81612b9a565b60105481565b6116c8610a92610a62565b6117035760405162461bcd60e51b81526004018080602001828103825260408152602001806139526040913960400191505060405180910390fd5b600a80546001600160a01b0319166001600160a01b0383169081179091556040517f736ca4159357d1cbf704728e18931af966772d5708578447e6e9093b90668aab90600090a250565b611755610fac565b6001600160a01b0316611766610a62565b6001600160a01b0316146117b6576040805162461bcd60e51b815260206004820152601260248201527113db9b1e481d19585b4818d85b8818d85b1b60721b604482015290519081900360640190fd5b6117fb816014546969e10de76676d0800000604051806040016040528060138152602001724f7574206f6620626f756e747920736861726560681b815250600261287a565b6040805182815290517fd59808818ea399dc1f6f392a7a6adc6687486ee856e1d336f917dbc22783dafb9181900360200190a150565b61184161183c610a62565b610ca1565b61187c5760405162461bcd60e51b815260040180806020018281038252603a8152602001806139b9603a913960400191505060405180910390fd5b611884610f79565b6118d0576040805162461bcd60e51b81526020600482015260186024820152772a34b6b2b221b937bbb239b0b6329d103737ba1037b832b760411b604482015290519081900360640190fd5b6a084595161401484a00000060095410611928576040805162461bcd60e51b8152602060048201526014602482015273105b1b081d1bdad95b9cc8185b1b1bd8d85d195960621b604482015290519081900360640190fd5b6000806119336119da565b9050600061195f670de0b6b3a7640000611953843463ffffffff612be216565b9063ffffffff612b5816565b905061197261196c610a62565b34612c3b565b61197b81612c8d565b9250611985613012565b61198d610a62565b6001600160a01b03167fe23d136c8a147edd57f9cb65571186cacad0b34301c4785d3cf49dbad8b316c73485604051808381526020018281526020019250505060405180910390a2505050565b600080600a60009054906101000a90046001600160a01b03166001600160a01b031663feaf968c6040518163ffffffff1660e01b815260040160a06040518083038186803b158015611a2b57600080fd5b505afa158015611a3f573d6000803e3d6000fd5b505050506040513d60a0811015611a5557600080fd5b506020015191505090565b611a6b61183c610a62565b611aa65760405162461bcd60e51b815260040180806020018281038252603a8152602001806139b9603a913960400191505060405180910390fd5b611aae610f79565b611afa576040805162461bcd60e51b81526020600482015260186024820152772a34b6b2b221b937bbb239b0b6329d103737ba1037b832b760411b604482015290519081900360640190fd5b6a084595161401484a00000060095410611b52576040805162461bcd60e51b8152602060048201526014602482015273105b1b081d1bdad95b9cc8185b1b1bd8d85d195960621b604482015290519081900360640190fd5b600080611b5d6126ae565b90506000611b78620f4240611953848763ffffffff612be216565b9050611b8b611b85610a62565b85612c3b565b611b9481612c8d565b9250611bc3611ba1610a62565b611ba9610fac565b600c546001600160a01b031691908763ffffffff61304b16565b611bcb610a62565b6001600160a01b03167f5bd5fa9268384c2ce0efa4eadd3467d081f25e7b77e13153712be145940c6c878585604051808381526020018281526020019250505060405180910390a250505050565b611c21610fac565b6001600160a01b0316611c32610a62565b6001600160a01b031614611c82576040805162461bcd60e51b815260206004820152601260248201527113db9b1e481d19585b4818d85b8818d85b1b60721b604482015290519081900360640190fd5b601654421015611cc7576040805162461bcd60e51b815260206004820152601b6024820152600080516020613a47833981519152604482015290519081900360640190fd5b60006016546303bfc400014210611cea57506a06342fd08f00f637800000611d48565b6016546302cfd300014210611d0b57506a04a723dc6b40b8a9a00000611d48565b6016546301dfe200014210611d2c57506a031a17e847807b1bc00000611d48565b60165462eff100014210611d4857506a018d0bf423c03d8de000005b6011548114611d575760118190555b601054600090611d6d908463ffffffff612aa016565b9050601154811115611dbe576040805162461bcd60e51b81526020600482015260156024820152744f7574206f66206465762066756e6420736861726560581b604482015290519081900360640190fd5b6010819055611dce6111ef610fac565b6040805184815290517f508ce4df5cb712355b1838ebe7960f1c5fa233089109a878ad0f18a967731f839181900360200190a1505050565b60155481565b600f5481565b611e1a610fac565b6001600160a01b0316611e2b610a62565b6001600160a01b031614611e7b576040805162461bcd60e51b815260206004820152601260248201527113db9b1e481d19585b4818d85b8818d85b1b60721b604482015290519081900360640190fd5b611ec4816013546a0211654585005212800000604051806040016040528060168152602001754f7574206f6620636f6d6d756e69747920736861726560501b815250600161287a565b6040805182815290517f0594920c4254328af12b1023920cfff58872cafff2fd66d1d817476bb6d031fc9181900360200190a150565b60065490565b601654421015611f45576040805162461bcd60e51b815260206004820152601b6024820152600080516020613a47833981519152604482015290519081900360640190fd5b600080600d6000611f54610a62565b6001600160a01b0316815260208101919091526040016000205411611fab576040805162461bcd60e51b815260206004820152600860248201526710b0b23b34b9b7b960c11b604482015290519081900360640190fd5b6000600d6000611fb9610a62565b6001600160a01b031681526020810191909152604001600020546016549091506303bfc400014210611ffd57611ff681600463ffffffff612be216565b915061204f565b6016546302cfd30001421061201d57611ff681600363ffffffff612be216565b6016546301dfe20001421061203d57611ff681600263ffffffff612be216565b60165462eff10001421061204f578091505b600d600061205b610a62565b6001600160a01b03166001600160a01b031681526020019081526020016000206001015482146120b05781600d6000612092610a62565b6001600160a01b031681526020810191909152604001600020600101555b60006120eb84600d60006120c2610a62565b6001600160a01b031681526020810191909152604001600020600201549063ffffffff612aa016565b9050600d60006120f9610a62565b6001600160a01b03166001600160a01b0316815260200190815260200160002060010154811115612168576040805162461bcd60e51b81526020600482015260146024820152734f7574206f662061647669736f7220736861726560601b604482015290519081900360640190fd5b80600d6000612175610a62565b6001600160a01b0316815260208101919091526040016000206002015561219d611581610a62565b6121a5610a62565b6001600160a01b03167f83daae824bbbbfe48150a95968b3e11ea42986b7ed680da649d4045cf979ba5e856040518082815260200191505060405180910390a250505050565b6000610cb4818363ffffffff61280f16565b612208610a92610a62565b6122435760405162461bcd60e51b81526004018080602001828103825260408152602001806139526040913960400191505060405180910390fd5b6001600160a01b0382166000908152600d602052604081205461229f576040805162461bcd60e51b815260206004820152600f60248201526e24b73b30b634b21030b23b34b9b7b960891b604482015290519081900360640190fd5b6001600160a01b0383166000908152600d60205260409020546122c990600463ffffffff612be216565b90506122dc82600463ffffffff612b5816565b6001600160a01b0384166000818152600d6020908152604091829020939093558051848152928301859052805191927f1cfb75aad73a4e1eb81a4f24427f023bbcc8c11f9454a2cc9aa653ca8b6a5e12929081900390910190a2505050565b600060405162461bcd60e51b81526004018080602001828103825260248152602001806137f36024913960400191505060405180910390fd5b610faa61237f610a62565b6127c7565b61238f610a92610a62565b6123ca5760405162461bcd60e51b81526004018080602001828103825260408152602001806139526040913960400191505060405180910390fd5b601654421061240a5760405162461bcd60e51b8152600401808060200182810382526025815260200180613a676025913960400191505060405180910390fd5b6016805490829055604080518281526020810184905281517f718791b3330ed4ee60d5ad30aca426a54ec7062bd224681d168dbf222db6c677929181900390910190a15050565b60025460ff166124a8576040805162461bcd60e51b815260206004820152601f60248201527f5265656e7472616e637947756172643a207265656e7472616e742063616c6c00604482015290519081900360640190fd5b6002805460ff19169055346124bd8282612c3b565b60006124c8826130ab565b6005549091506124de908363ffffffff612aa016565b6005556124eb83826130c2565b826001600160a01b03166124fd610a62565b6001600160a01b03167f6faf93231a456e552dbc9961f58d9713ee4f2e69d15f1975b050ef0911053a7b8484604051808381526020018281526020019250505060405180910390a361254f8383612c89565b612557613012565b6125618383612c89565b50506002805460ff1916600117905550565b61257e610a92610a62565b6125b95760405162461bcd60e51b81526004018080602001828103825260408152602001806139526040913960400191505060405180910390fd5b6001600160a01b038216612614576040805162461bcd60e51b815260206004820152601760248201527f496e76616c69642061647669736f722061646472657373000000000000000000604482015290519081900360640190fd5b61262581600463ffffffff612b5816565b6001600160a01b0383166000818152600d6020908152604091829020939093558051848152905191927fc56faf057c0642115e9d238198d1c9185ba17968fce92c3f01263cf12475c7a692918290030190a25050565b60086020526000908152604090208054600182015460028301546003909301549192909184565b60125481565b60095481565b600080600b60009054906101000a90046001600160a01b03166001600160a01b031663feaf968c6040518163ffffffff1660e01b815260040160a06040518083038186803b1580156126ff57600080fd5b505afa158015612713573d6000803e3d6000fd5b505050506040513d60a081101561272957600080fd5b50602001519050600061273a6119da565b9050612764670de0b6b3a7640000612758848463ffffffff6130cc16565b9063ffffffff61317516565b9250505090565b60025461010090046001600160a01b031690565b61279060018263ffffffff61322d16565b6040516001600160a01b038216907fee1504a83b6d4a361f4c1dc78ab59bfa30d6a3b6612c403e86bb01ef2984295f90600090a250565b6127d860018263ffffffff6132ae16565b6040516001600160a01b038216907f270d9b30cf5b0793bbfd54c9d5b94aeb49462b8148399000265144a8722da6b690600090a250565b60006001600160a01b0382166128565760405162461bcd60e51b81526004018080602001828103825260228152602001806139306022913960400191505060405180910390fd5b506001600160a01b03811660009081526020839052604090205460ff165b92915050565b600061288c858763ffffffff612aa016565b9050828482111561291b5760405162461bcd60e51b81526004018080602001828103825283818151815260200191508051906020019080838360005b838110156128e05781810151838201526020016128c8565b50505050905090810190601f16801561290d5780820380516001836020036101000a031916815260200191505b509250505060405180910390fd5b508161292b576012819055612960565b816001141561293e576013819055612960565b8160021415612951576014819055612960565b81600314156129605760158190555b61297461296b610fac565b876111f861276b565b505050505050565b612984610bd1565b156129d6576040805162461bcd60e51b815260206004820152601e60248201527f54696d656443726f776473616c653a20616c726561647920636c6f7365640000604482015290519081900360640190fd5b6007548111612a165760405162461bcd60e51b815260040180806020018281038252603f8152602001806138d0603f913960400191505060405180910390fd5b600754604080519182526020820183905280517f46711e222f558a07afd26e5e71b48ecb0a8b2cdcd40faeb1323e05e2c76a2f329281900390910190a1600755565b612a6960008263ffffffff6132ae16565b6040516001600160a01b038216907f0a8eb35e5ca14b3d6f28e4abf2f128dbab231a58b56e89beb5d636115001e16590600090a250565b600082820183811015612afa576040805162461bcd60e51b815260206004820152601b60248201527f536166654d6174683a206164646974696f6e206f766572666c6f770000000000604482015290519081900360640190fd5b9392505050565b604080516001600160a01b038416602482015260448082018490528251808303909101815260649091019091526020810180516001600160e01b031663a9059cbb60e01b179052612b53908490613315565b505050565b6000612afa83836040518060400160405280601a81526020017f536166654d6174683a206469766973696f6e206279207a65726f0000000000008152506134cd565b612bab60008263ffffffff61322d16565b6040516001600160a01b038216907f22380c05984257a1cb900161c713dd71d39e74820f1aea43bd3f1bdd2096129990600090a250565b600082612bf157506000612874565b82820282848281612bfe57fe5b0414612afa5760405162461bcd60e51b815260040180806020018281038252602181526020018061390f6021913960400191505060405180910390fd5b612c4482610ca1565b612c7f5760405162461bcd60e51b81526004018080602001828103825260418152602001806137b26041913960600191505060405180910390fd5b612c898282613532565b5050565b6000806000806000806000806000806000612ca6613590565b80965081975050508460ff166a0211654585005212800000026affffffffffffffffffffff1693506a021165458500521280000060095411612cef5764174876e8009750612d4e565b6a0422ca8b0a00a42500000060095411612d1057640ba43b74009750612d4e565b6a06342fd08f00f63780000060095411612d31576405d21dba009750612d4e565b6a084595161401484a00000060095411612d4e576402540be40097505b8b8811158015612d645750650246139ca8008c11155b612d9f5760405162461bcd60e51b815260040180806020018281038252602a815260200180613838602a913960400191505060405180910390fd5b612dd58c60086000612daf610a62565b6001600160a01b031681526020810191909152604001600020549063ffffffff612aa016565b9650650246139ca800871115612e1c5760405162461bcd60e51b81526004018080602001828103825260218152602001806138176021913960400191505060405180910390fd5b612e2c868d63ffffffff612be216565b600954909950612e42908a63ffffffff612aa016565b99506a084595161401484a0000008a1115612e98576040805162461bcd60e51b815260206004820152601160248201527012185c990818d85c08195e18d959591959607a1b604482015290519081900360640190fd5b8660086000612ea5610a62565b6001600160a01b03168152602081019190915260400160002055838a11612f3f5760098a9055612f048960086000612edb610a62565b6001600160a01b031681526020810191909152604001600020600101549063ffffffff612aa016565b60086000612f10610a62565b6001600160a01b0316815260208101919091526040016000206001015550969850610cb7975050505050505050565b6000612f566009548661362690919063ffffffff16565b9350612f78612f6b858963ffffffff612b5816565b8e9063ffffffff61362616565b60098690559150612f87613590565b9097509550612f9c828863ffffffff612be216565b600954909350612fb2908463ffffffff612aa016565b600955612fc5848463ffffffff612aa016565b9050612fd78160086000612edb610a62565b60086000612fe3610a62565b6001600160a01b031681526020810191909152604001600020600101559a50610cb79950505050505050505050565b6003546040516001600160a01b03909116903480156108fc02916000818181858888f19350505050158015610bce573d6000803e3d6000fd5b604080516001600160a01b0385811660248301528416604482015260648082018490528251808303909101815260849091019091526020810180516001600160e01b03166323b872dd60e01b1790526130a5908590613315565b50505050565b6000610cb460045483612be290919063ffffffff16565b612c898282613668565b6000826130db57506000612874565b826000191480156130ef5750600160ff1b82145b1561312b5760405162461bcd60e51b81526004018080602001828103825260278152602001806139926027913960400191505060405180910390fd5b8282028284828161313857fe5b0514612afa5760405162461bcd60e51b81526004018080602001828103825260278152602001806139926027913960400191505060405180910390fd5b6000816131c9576040805162461bcd60e51b815260206004820181905260248201527f5369676e6564536166654d6174683a206469766973696f6e206279207a65726f604482015290519081900360640190fd5b816000191480156131dd5750600160ff1b83145b156132195760405162461bcd60e51b815260040180806020018281038252602181526020018061388e6021913960400191505060405180910390fd5b600082848161322457fe5b05949350505050565b613237828261280f565b15613289576040805162461bcd60e51b815260206004820152601f60248201527f526f6c65733a206163636f756e7420616c72656164792068617320726f6c6500604482015290519081900360640190fd5b6001600160a01b0316600090815260209190915260409020805460ff19166001179055565b6132b8828261280f565b6132f35760405162461bcd60e51b81526004018080602001828103825260218152602001806138af6021913960400191505060405180910390fd5b6001600160a01b0316600090815260209190915260409020805460ff19169055565b613327826001600160a01b0316613684565b613378576040805162461bcd60e51b815260206004820152601f60248201527f5361666545524332303a2063616c6c20746f206e6f6e2d636f6e747261637400604482015290519081900360640190fd5b60006060836001600160a01b0316836040518082805190602001908083835b602083106133b65780518252601f199092019160209182019101613397565b6001836020036101000a0380198251168184511680821785525050505050509050019150506000604051808303816000865af19150503d8060008114613418576040519150601f19603f3d011682016040523d82523d6000602084013e61341d565b606091505b509150915081613474576040805162461bcd60e51b815260206004820181905260248201527f5361666545524332303a206c6f772d6c6576656c2063616c6c206661696c6564604482015290519081900360640190fd5b8051156130a55780806020019051602081101561349057600080fd5b50516130a55760405162461bcd60e51b815260040180806020018281038252602a815260200180613a1d602a913960400191505060405180910390fd5b6000818361351c5760405162461bcd60e51b81526020600482018181528351602484015283519092839260449091019190850190808383600083156128e05781810151838201526020016128c8565b50600083858161352857fe5b0495945050505050565b61353a610f79565b613586576040805162461bcd60e51b81526020600482015260186024820152772a34b6b2b221b937bbb239b0b6329d103737ba1037b832b760411b604482015290519081900360640190fd5b612c8982826136c0565b6000806a021165458500521280000060095410156135b85750643a3529440090506001613622565b6a0422ca8b0a00a42500000060095410156135dd57506433bd7a038e90506002613622565b6a06342fd08f00f63780000060095410156136025750642e90edd00090506003613622565b6a084595161401484a000000600954116136225750642a553548ba905060045b9091565b6000612afa83836040518060400160405280601e81526020017f536166654d6174683a207375627472616374696f6e206f766572666c6f770000815250613757565b600254612c899061010090046001600160a01b03168383612b01565b6000813f7fc5d2460186f7233c927e7db2dcc703c0e500b653ca82273b7bfad8045d85a4708181148015906136b857508115155b949350505050565b6001600160a01b0382166137055760405162461bcd60e51b815260040180806020018281038252602a8152602001806139f3602a913960400191505060405180910390fd5b80612c89576040805162461bcd60e51b815260206004820152601960248201527f43726f776473616c653a20776569416d6f756e74206973203000000000000000604482015290519081900360640190fd5b600081848411156137a95760405162461bcd60e51b81526020600482018181528351602484015283519092839260449091019190850190808383600083156128e05781810151838201526020016128c8565b50505090039056fe57686974656c69737443726f776473616c653a2062656e656669636961727920646f65736e27742068617665207468652057686974656c697374656420726f6c6542437562655072697661746553616c653a20627579546f6b656e7328292063616c6c6564436f6e747269627574696f6e207570706572206c696d6974206578636565646564436f6e747269627574696f6e2072616e676520666f72207468697320726f756e64206578636565646564217072697661746553616c655061727469636970616e74207c7c203020424355424520616c6c6f63617465645369676e6564536166654d6174683a206469766973696f6e206f766572666c6f77526f6c65733a206163636f756e7420646f6573206e6f74206861766520726f6c6554696d656443726f776473616c653a206e657720636c6f73696e672074696d65206973206265666f72652063757272656e7420636c6f73696e672074696d65536166654d6174683a206d756c7469706c69636174696f6e206f766572666c6f77526f6c65733a206163636f756e7420697320746865207a65726f206164647265737357686974656c69737441646d696e526f6c653a2063616c6c657220646f6573206e6f742068617665207468652057686974656c69737441646d696e20726f6c655369676e6564536166654d6174683a206d756c7469706c69636174696f6e206f766572666c6f7757686974656c6973746564526f6c653a2063616c6c657220646f6573206e6f742068617665207468652057686974656c697374656420726f6c6543726f776473616c653a2062656e656669636961727920697320746865207a65726f20616464726573735361666545524332303a204552433230206f7065726174696f6e20646964206e6f7420737563636565644f6e6c792063616c6c61626c65206166746572206c697374696e6700000000006c697374696e6754696d6520756e6368616e6761626c65206166746572206c697374696e67a265627a7a72315820b31bf961dc8608ff0cee3ee4246633dbf98e8144a5ef9443e270777bf5782d2664736f6c6343000511003254696d656443726f776473616c653a206f70656e696e672074696d65206973206265666f72652063757272656e742074696d6554696d656443726f776473616c653a206f70656e696e672074696d65206973206e6f74206265666f726520636c6f73696e672074696d6543726f776473616c653a20746f6b656e20697320746865207a65726f2061646472657373526f6c65733a206163636f756e7420697320746865207a65726f206164647265737343726f776473616c653a2077616c6c657420697320746865207a65726f2061646472657373",
  "devdoc": {
    "author": "Smit Rajput @ b-cube.ai*",
    "methods": {
      "advisorShareWithdraw(uint256)": {
        "details": "allows existing advisors to withdraw their share of BCUBEs, 25% per 6 months, after listingTime"
      },
      "bountyShareWithdraw(uint256)": {
        "details": "allows team to withdraw bounty share of BCUBEs i.e. 0.5m"
      },
      "buyBcubeUsingETH()": {
        "details": "allowing users to allocate BCUBEs for themselves using ETH only KYC/AML whitelisted users can call this, while the sale is open and allocation hard cap is not reachedit fetches current price of ETH, multiples that by incoming ETH to calc total incoming dollar units, then allocates appropriate amount of BCUBE to user based on current rate, stage"
      },
      "buyBcubeUsingUSDT(uint256)": {
        "details": "allowing users to allocate BCUBEs for themselves using USDT does all things similar to the above function, but for USDT"
      },
      "buyTokens()": {
        "details": "token buying function of the parent contract which is not used for this contract"
      },
      "buyTokens(address)": {
        "details": "low level token purchase ***DO NOT OVERRIDE*** This function has a non-reentrancy guard, so it shouldn't be called by another `nonReentrant` function.",
        "params": {
          "beneficiary": "Recipient of the token purchase"
        }
      },
      "closingTime()": {
        "return": "the crowdsale closing time."
      },
      "communityShareWithdraw(uint256)": {
        "details": "allows team to withdraw community share of BCUBEs i.e. 2.5m"
      },
      "constructor": {
        "params": {
          "wallet_": "team's address which controls all BCUBEs except private sale share"
        }
      },
      "devFundShareWithdraw(uint256)": {
        "details": "allows team to withdraw devFund share of BCUBEs, 25% of 7.5m, per 6 months, after listingTime"
      },
      "extendClosingTime(uint256)": {
        "details": "to extend the current closing time of private sale"
      },
      "fetchETHPrice()": {
        "details": "fetching ETH price from chainlink oracle"
      },
      "fetchUSDTPrice()": {
        "details": "fetching USDT price from chainlink oracle"
      },
      "hasClosed()": {
        "details": "Checks whether the period in which the crowdsale is open has already elapsed.",
        "return": "Whether crowdsale period has elapsed"
      },
      "isOpen()": {
        "return": "true if the crowdsale is open, false otherwise."
      },
      "openingTime()": {
        "return": "the crowdsale opening time."
      },
      "privateSaleShareWithdraw(uint256)": {
        "details": "allows private sale participants to withdraw their allocated share of BCUBEs, 25% per 30 days, after listingTime"
      },
      "publicSaleShareWithdraw(uint256)": {
        "details": "allows team to withdraw publicSale share of BCUBEs i.e. 25m - (netAllocatedBcube in private sale)"
      },
      "rate()": {
        "details": "dummy rate for the parent contract which is not used for this contract"
      },
      "reservesShareWithdraw(uint256)": {
        "details": "allows team to withdraw reserves share of BCUBEs i.e. 7m after listingTime"
      },
      "setAdvisorAllowance(address,uint256)": {
        "details": "allows deployer to change net allowance of existing advisor"
      },
      "setETHPriceFeed(address)": {
        "details": "allowing resetting ETH, USDT priceFeed instances, in case current Chainlink contracts upgrade"
      },
      "setListingTime(uint256)": {
        "details": "WhitelistAdmin is the deployerallows deployer to change listingTime, before current listingTime"
      },
      "setUSDTInstance(address)": {
        "details": "allowing resetting USDT instance, in case current contract upgrades"
      },
      "teamShareWithdraw(uint256)": {
        "details": "allows team to withdraw their share of BCUBEs, 12.5% of 5m, per 6 months, after listingTime"
      },
      "token()": {
        "return": "the token being sold."
      },
      "wallet()": {
        "return": "the address where funds are collected."
      },
      "weiRaised()": {
        "return": "the amount of wei raised."
      }
    },
    "title": "BCUBE Treasury"
  },
  "userdoc": {
    "methods": {},
    "notice": "Contract in which 50m BCUBE will be minted after private sale, and distributed to stakeholders, in vested manner to whomever applicable"
  },
  "storageLayout": {
    "storage": [
      {
        "astId": 172,
        "contract": "contracts/Treasury.sol:Treasury",
        "label": "_whitelistAdmins",
        "offset": 0,
        "slot": "0",
        "type": "t_struct(Role)79_storage"
      },
      {
        "astId": 282,
        "contract": "contracts/Treasury.sol:Treasury",
        "label": "_whitelisteds",
        "offset": 0,
        "slot": "1",
        "type": "t_struct(Role)79_storage"
      },
      {
        "astId": 2141,
        "contract": "contracts/Treasury.sol:Treasury",
        "label": "_notEntered",
        "offset": 0,
        "slot": "2",
        "type": "t_bool"
      },
      {
        "astId": 392,
        "contract": "contracts/Treasury.sol:Treasury",
        "label": "_token",
        "offset": 1,
        "slot": "2",
        "type": "t_contract(IERC20)1842"
      },
      {
        "astId": 394,
        "contract": "contracts/Treasury.sol:Treasury",
        "label": "_wallet",
        "offset": 0,
        "slot": "3",
        "type": "t_address_payable"
      },
      {
        "astId": 396,
        "contract": "contracts/Treasury.sol:Treasury",
        "label": "_rate",
        "offset": 0,
        "slot": "4",
        "type": "t_uint256"
      },
      {
        "astId": 398,
        "contract": "contracts/Treasury.sol:Treasury",
        "label": "_weiRaised",
        "offset": 0,
        "slot": "5",
        "type": "t_uint256"
      },
      {
        "astId": 661,
        "contract": "contracts/Treasury.sol:Treasury",
        "label": "_openingTime",
        "offset": 0,
        "slot": "6",
        "type": "t_uint256"
      },
      {
        "astId": 663,
        "contract": "contracts/Treasury.sol:Treasury",
        "label": "_closingTime",
        "offset": 0,
        "slot": "7",
        "type": "t_uint256"
      },
      {
        "astId": 2315,
        "contract": "contracts/Treasury.sol:Treasury",
        "label": "bcubeAllocationRegistry",
        "offset": 0,
        "slot": "8",
        "type": "t_mapping(t_address,t_struct(UserInfo)2311_storage)"
      },
      {
        "astId": 2317,
        "contract": "contracts/Treasury.sol:Treasury",
        "label": "netAllocatedBcube",
        "offset": 0,
        "slot": "9",
        "type": "t_uint256"
      },
      {
        "astId": 2322,
        "contract": "contracts/Treasury.sol:Treasury",
        "label": "priceFeedETH",
        "offset": 0,
        "slot": "10",
        "type": "t_contract(AggregatorV3Interface)45"
      },
      {
        "astId": 2324,
        "contract": "contracts/Treasury.sol:Treasury",
        "label": "priceFeedUSDT",
        "offset": 0,
        "slot": "11",
        "type": "t_contract(AggregatorV3Interface)45"
      },
      {
        "astId": 2326,
        "contract": "contracts/Treasury.sol:Treasury",
        "label": "usdt",
        "offset": 0,
        "slot": "12",
        "type": "t_contract(IERC20)1842"
      },
      {
        "astId": 3238,
        "contract": "contracts/Treasury.sol:Treasury",
        "label": "advisors",
        "offset": 0,
        "slot": "13",
        "type": "t_mapping(t_address,t_struct(Advisor)3234_storage)"
      },
      {
        "astId": 3240,
        "contract": "contracts/Treasury.sol:Treasury",
        "label": "teamShareWithdrawn",
        "offset": 0,
        "slot": "14",
        "type": "t_uint256"
      },
      {
        "astId": 3242,
        "contract": "contracts/Treasury.sol:Treasury",
        "label": "teamAllowance",
        "offset": 0,
        "slot": "15",
        "type": "t_uint256"
      },
      {
        "astId": 3244,
        "contract": "contracts/Treasury.sol:Treasury",
        "label": "devFundShareWithdrawn",
        "offset": 0,
        "slot": "16",
        "type": "t_uint256"
      },
      {
        "astId": 3246,
        "contract": "contracts/Treasury.sol:Treasury",
        "label": "devFundAllowance",
        "offset": 0,
        "slot": "17",
        "type": "t_uint256"
      },
      {
        "astId": 3248,
        "contract": "contracts/Treasury.sol:Treasury",
        "label": "reservesWithdrawn",
        "offset": 0,
        "slot": "18",
        "type": "t_uint256"
      },
      {
        "astId": 3250,
        "contract": "contracts/Treasury.sol:Treasury",
        "label": "communityShareWithdrawn",
        "offset": 0,
        "slot": "19",
        "type": "t_uint256"
      },
      {
        "astId": 3252,
        "contract": "contracts/Treasury.sol:Treasury",
        "label": "bountyWithdrawn",
        "offset": 0,
        "slot": "20",
        "type": "t_uint256"
      },
      {
        "astId": 3254,
        "contract": "contracts/Treasury.sol:Treasury",
        "label": "publicSaleShareWithdrawn",
        "offset": 0,
        "slot": "21",
        "type": "t_uint256"
      },
      {
        "astId": 3256,
        "contract": "contracts/Treasury.sol:Treasury",
        "label": "listingTime",
        "offset": 0,
        "slot": "22",
        "type": "t_uint256"
      }
    ],
    "types": {
      "t_address": {
        "encoding": "inplace",
        "label": "address",
        "numberOfBytes": "20"
      },
      "t_address_payable": {
        "encoding": "inplace",
        "label": "address payable",
        "numberOfBytes": "20"
      },
      "t_bool": {
        "encoding": "inplace",
        "label": "bool",
        "numberOfBytes": "1"
      },
      "t_contract(AggregatorV3Interface)45": {
        "encoding": "inplace",
        "label": "contract AggregatorV3Interface",
        "numberOfBytes": "20"
      },
      "t_contract(IERC20)1842": {
        "encoding": "inplace",
        "label": "contract IERC20",
        "numberOfBytes": "20"
      },
      "t_mapping(t_address,t_bool)": {
        "encoding": "mapping",
        "key": "t_address",
        "label": "mapping(address => bool)",
        "numberOfBytes": "32",
        "value": "t_bool"
      },
      "t_mapping(t_address,t_struct(Advisor)3234_storage)": {
        "encoding": "mapping",
        "key": "t_address",
        "label": "mapping(address => struct Treasury.Advisor)",
        "numberOfBytes": "32",
        "value": "t_struct(Advisor)3234_storage"
      },
      "t_mapping(t_address,t_struct(UserInfo)2311_storage)": {
        "encoding": "mapping",
        "key": "t_address",
        "label": "mapping(address => struct BCUBEPrivateSale.UserInfo)",
        "numberOfBytes": "32",
        "value": "t_struct(UserInfo)2311_storage"
      },
      "t_struct(Advisor)3234_storage": {
        "encoding": "inplace",
        "label": "struct Treasury.Advisor",
        "members": [
          {
            "astId": 3229,
            "contract": "contracts/Treasury.sol:Treasury",
            "label": "increaseInAllowance",
            "offset": 0,
            "slot": "0",
            "type": "t_uint256"
          },
          {
            "astId": 3231,
            "contract": "contracts/Treasury.sol:Treasury",
            "label": "currentAllowance",
            "offset": 0,
            "slot": "1",
            "type": "t_uint256"
          },
          {
            "astId": 3233,
            "contract": "contracts/Treasury.sol:Treasury",
            "label": "shareWithdrawn",
            "offset": 0,
            "slot": "2",
            "type": "t_uint256"
          }
        ],
        "numberOfBytes": "96"
      },
      "t_struct(Role)79_storage": {
        "encoding": "inplace",
        "label": "struct Roles.Role",
        "members": [
          {
            "astId": 78,
            "contract": "contracts/Treasury.sol:Treasury",
            "label": "bearer",
            "offset": 0,
            "slot": "0",
            "type": "t_mapping(t_address,t_bool)"
          }
        ],
        "numberOfBytes": "32"
      },
      "t_struct(UserInfo)2311_storage": {
        "encoding": "inplace",
        "label": "struct BCUBEPrivateSale.UserInfo",
        "members": [
          {
            "astId": 2304,
            "contract": "contracts/Treasury.sol:Treasury",
            "label": "dollarUnitsPayed",
            "offset": 0,
            "slot": "0",
            "type": "t_uint256"
          },
          {
            "astId": 2306,
            "contract": "contracts/Treasury.sol:Treasury",
            "label": "allocatedBcube",
            "offset": 0,
            "slot": "1",
            "type": "t_uint256"
          },
          {
            "astId": 2308,
            "contract": "contracts/Treasury.sol:Treasury",
            "label": "currentAllowance",
            "offset": 0,
            "slot": "2",
            "type": "t_uint256"
          },
          {
            "astId": 2310,
            "contract": "contracts/Treasury.sol:Treasury",
            "label": "shareWithdrawn",
            "offset": 0,
            "slot": "3",
            "type": "t_uint256"
          }
        ],
        "numberOfBytes": "128"
      },
      "t_uint256": {
        "encoding": "inplace",
        "label": "uint256",
        "numberOfBytes": "32"
      }
    }
  }
}